{
  "contractName": "Marketplace",
  "abi": [
    {
      "anonymous": false,
      "inputs": [
        {
          "indexed": false,
          "internalType": "uint256",
          "name": "id",
          "type": "uint256"
        },
        {
          "indexed": false,
          "internalType": "uint256",
          "name": "energyUnits",
          "type": "uint256"
        },
        {
          "indexed": false,
          "internalType": "uint256",
          "name": "price",
          "type": "uint256"
        },
        {
          "indexed": false,
          "internalType": "address payable",
          "name": "owner",
          "type": "address"
        },
        {
          "indexed": false,
          "internalType": "bool",
          "name": "purchased",
          "type": "bool"
        }
      ],
      "name": "ProductBought",
      "type": "event"
    },
    {
      "anonymous": false,
      "inputs": [
        {
          "indexed": false,
          "internalType": "uint256",
          "name": "id",
          "type": "uint256"
        },
        {
          "indexed": false,
          "internalType": "uint256",
          "name": "energyUnits",
          "type": "uint256"
        },
        {
          "indexed": false,
          "internalType": "uint256",
          "name": "price",
          "type": "uint256"
        },
        {
          "indexed": false,
          "internalType": "address payable",
          "name": "owner",
          "type": "address"
        },
        {
          "indexed": false,
          "internalType": "bool",
          "name": "purchased",
          "type": "bool"
        }
      ],
      "name": "ProductSold",
      "type": "event"
    },
    {
      "inputs": [
        {
          "internalType": "uint256",
          "name": "",
          "type": "uint256"
        }
      ],
      "name": "energypurchase",
      "outputs": [
        {
          "internalType": "uint256",
          "name": "id",
          "type": "uint256"
        },
        {
          "internalType": "uint256",
          "name": "energyUnits",
          "type": "uint256"
        },
        {
          "internalType": "uint256",
          "name": "price",
          "type": "uint256"
        },
        {
          "internalType": "address payable",
          "name": "owner",
          "type": "address"
        },
        {
          "internalType": "bool",
          "name": "purchased",
          "type": "bool"
        }
      ],
      "stateMutability": "view",
      "type": "function",
      "constant": true
    },
    {
      "inputs": [],
      "name": "orderCount",
      "outputs": [
        {
          "internalType": "uint256",
          "name": "",
          "type": "uint256"
        }
      ],
      "stateMutability": "view",
      "type": "function",
      "constant": true
    },
    {
      "inputs": [
        {
          "internalType": "uint256",
          "name": "_energyunits",
          "type": "uint256"
        },
        {
          "internalType": "uint256",
          "name": "_price",
          "type": "uint256"
        }
      ],
      "name": "SellOrder",
      "outputs": [],
      "stateMutability": "nonpayable",
      "type": "function"
    },
    {
      "inputs": [
        {
          "internalType": "uint256",
          "name": "_id",
          "type": "uint256"
        }
      ],
      "name": "BuyOrder",
      "outputs": [],
      "stateMutability": "payable",
      "type": "function",
      "payable": true
    }
  ],
  "bytecode": "0x60806040526000805534801561001457600080fd5b50610891806100246000396000f3fe60806040526004361061003f5760003560e01c80632453ffa814610044578063387e728a1461006f5780638440ced11461008b578063a7248c9e146100cc575b600080fd5b34801561005057600080fd5b506100596100f5565b60405161006691906105b9565b60405180910390f35b61008960048036038101906100849190610605565b6100fb565b005b34801561009757600080fd5b506100b260048036038101906100ad9190610605565b6103e8565b6040516100c395949392919061068e565b60405180910390f35b3480156100d857600080fd5b506100f360048036038101906100ee91906106e1565b61044b565b005b60005481565b600060016000838152602001908152602001600020905060008160030160009054906101000a900473ffffffffffffffffffffffffffffffffffffffff169050600082600001541180156101555750600054826000015411155b61015e57600080fd5b816002015434101561016f57600080fd5b8160030160149054906101000a900460ff161561018b57600080fd5b3373ffffffffffffffffffffffffffffffffffffffff168173ffffffffffffffffffffffffffffffffffffffff16036101c357600080fd5b338260030160006101000a81548173ffffffffffffffffffffffffffffffffffffffff021916908373ffffffffffffffffffffffffffffffffffffffff16021790555060018260030160146101000a81548160ff02191690831515021790555081600160008581526020019081526020016000206000820154816000015560018201548160010155600282015481600201556003820160009054906101000a900473ffffffffffffffffffffffffffffffffffffffff168160030160006101000a81548173ffffffffffffffffffffffffffffffffffffffff021916908373ffffffffffffffffffffffffffffffffffffffff1602179055506003820160149054906101000a900460ff168160030160146101000a81548160ff02191690831515021790555090505060008173ffffffffffffffffffffffffffffffffffffffff163460405161031290610752565b60006040518083038185875af1925050503d806000811461034f576040519150601f19603f3d011682016040523d82523d6000602084013e610354565b606091505b5050905080610398576040517f08c379a000000000000000000000000000000000000000000000000000000000815260040161038f906107c4565b60405180910390fd5b7f92d2d3e0474c6a248849495ae8f9a5008b91c58d9fa58ee4bb2ce2e5e20ed5ad600054846001015485600201543360016040516103da95949392919061068e565b60405180910390a150505050565b60016020528060005260406000206000915090508060000154908060010154908060020154908060030160009054906101000a900473ffffffffffffffffffffffffffffffffffffffff16908060030160149054906101000a900460ff16905085565b6000821161045857600080fd5b6000811161046557600080fd5b60008081548092919061047790610813565b91905055506040518060a0016040528060005481526020018381526020018281526020013373ffffffffffffffffffffffffffffffffffffffff16815260200160001515815250600160008054815260200190815260200160002060008201518160000155602082015181600101556040820151816002015560608201518160030160006101000a81548173ffffffffffffffffffffffffffffffffffffffff021916908373ffffffffffffffffffffffffffffffffffffffff16021790555060808201518160030160146101000a81548160ff0219169083151502179055509050507f03884565ea967bf3d132d60791f052fdfa31d0fee91d6ec0a44c03ddfd9685eb600054838333600060405161059495949392919061068e565b60405180910390a15050565b6000819050919050565b6105b3816105a0565b82525050565b60006020820190506105ce60008301846105aa565b92915050565b600080fd5b6105e2816105a0565b81146105ed57600080fd5b50565b6000813590506105ff816105d9565b92915050565b60006020828403121561061b5761061a6105d4565b5b6000610629848285016105f0565b91505092915050565b600073ffffffffffffffffffffffffffffffffffffffff82169050919050565b600061065d82610632565b9050919050565b61066d81610652565b82525050565b60008115159050919050565b61068881610673565b82525050565b600060a0820190506106a360008301886105aa565b6106b060208301876105aa565b6106bd60408301866105aa565b6106ca6060830185610664565b6106d7608083018461067f565b9695505050505050565b600080604083850312156106f8576106f76105d4565b5b6000610706858286016105f0565b9250506020610717858286016105f0565b9150509250929050565b600081905092915050565b50565b600061073c600083610721565b91506107478261072c565b600082019050919050565b600061075d8261072f565b9150819050919050565b600082825260208201905092915050565b7f5472616e73666572206661696c65642e00000000000000000000000000000000600082015250565b60006107ae601083610767565b91506107b982610778565b602082019050919050565b600060208201905081810360008301526107dd816107a1565b9050919050565b7f4e487b7100000000000000000000000000000000000000000000000000000000600052601160045260246000fd5b600061081e826105a0565b91507fffffffffffffffffffffffffffffffffffffffffffffffffffffffffffffffff82036108505761084f6107e4565b5b60018201905091905056fea26469706673582212204b85a59b2c05e2de0d136534814bb5f370586102fabab83e42f40cc562ae618164736f6c63430008130033",
  "immutableReferences": {},
  "source": "pragma solidity ^0.8.19;\r\ncontract Marketplace{\r\n    \r\n    uint public orderCount = 0;\r\n    mapping(uint => EnergyPurchase) public energypurchase;\r\n\r\n    struct EnergyPurchase {\r\n        uint id;\r\n        uint energyUnits;\r\n        uint price;\r\n        address payable owner;\r\n        bool purchased;\r\n    }\r\n    event ProductBought(uint id, uint energyUnits, uint price, address payable owner,bool purchased);\r\n    event ProductSold(uint id, uint energyUnits, uint price, address payable owner,bool purchased);\r\n\r\n    function  SellOrder(uint _energyunits,uint _price) public{\r\n        //require a valid energyunits\r\n        require(_energyunits> 0);\r\n        //require a valid price\r\n        require(_price > 0);\r\n        //require the sender to be the owner of the product\r\n       // require(msg.sender.balance >= _price);\r\n          // require(!energypurchase[orderCount].purchased, \"Product has already been purchased\");\r\n          //  require(energypurchase[orderCount].owner == payable(msg.sender), \"Invalid owner\");\r\n        //require(energypurchase[orderCount].price == _price, \"Invalid price\");\r\n        //require the product to be not sold\r\n        //require(energypurchase[payable(msg.sender).address].id == 0);\r\n        //require the product to be not purchased\r\n        //require(energypurchase[payable(msg.sender).address].purchased == false);\r\n        // Increment product count\r\n        orderCount ++;\r\n        // Create the product\r\n        energypurchase[orderCount] = EnergyPurchase(orderCount, _energyunits, _price, payable(msg.sender), false);\r\n        // Trigger an event\r\n        emit ProductSold(orderCount, _energyunits, _price, payable(msg.sender), false);\r\n    }\r\n    function BuyOrder(uint _id) public payable {\r\n    // Fetch the product\r\n    EnergyPurchase storage _energypurchase = energypurchase[_id];\r\n    // Fetch the owner\r\n    address payable _seller = _energypurchase.owner;\r\n    // Make sure the product has a valid id\r\n    require(_energypurchase.id > 0 && _energypurchase.id <= orderCount);\r\n    // Require that there is enough Ether in the transaction\r\n    require(msg.value >= _energypurchase.price);\r\n    // Require that the product has not been purchased already\r\n    require(!_energypurchase.purchased);\r\n    // Require that the buyer is not the seller\r\n    require(_seller != msg.sender);\r\n    // Transfer ownership to the buyer\r\n    _energypurchase.owner = payable(msg.sender);\r\n    // Mark as purchased\r\n    _energypurchase.purchased = true;\r\n    // Update the product\r\n    energypurchase[_id] = _energypurchase;\r\n    // Transfer Ether to the seller\r\n    (bool success, ) = payable(_seller).call{value: msg.value}(\"\");\r\n    require(success, \"Transfer failed.\");\r\n    // Trigger an event\r\n    emit ProductBought(orderCount, _energypurchase.energyUnits, _energypurchase.price, payable(msg.sender), true);\r\n}\r\n\r\n\r\n}",
  "sourcePath": "C:\\Users\\anias\\Desktop\\Energy\\my-app\\contracts\\Marketplace.sol",
  "compiler": {
    "name": "solc",
    "version": "0.8.19+commit.7dd6d404.Emscripten.clang"
  },
  "schemaVersion": "3.4.14",
  "updatedAt": "2023-06-07T05:22:00.932Z",
  "networkType": "ethereum",
  "devdoc": {
    "kind": "dev",
    "methods": {},
    "version": 1
  },
  "userdoc": {
    "kind": "user",
    "methods": {},
    "version": 1
  }
}